{
  "contractName": "Documents",
  "abi": [
    {
      "inputs": [
        {
          "internalType": "address",
          "name": "newObserverContractAddr",
          "type": "address"
        }
      ],
      "stateMutability": "nonpayable",
      "type": "constructor"
    },
    {
      "inputs": [],
      "name": "AccessDenied",
      "type": "error"
    },
    {
      "inputs": [],
      "name": "AlreadyExists",
      "type": "error"
    },
    {
      "inputs": [],
      "name": "AlreadyRequestedForVoting",
      "type": "error"
    },
    {
      "inputs": [],
      "name": "AlreadySettled",
      "type": "error"
    },
    {
      "inputs": [],
      "name": "DoesntExist",
      "type": "error"
    },
    {
      "inputs": [],
      "name": "EndTimeNotArrived",
      "type": "error"
    },
    {
      "inputs": [],
      "name": "InsufficientValue",
      "type": "error"
    },
    {
      "inputs": [],
      "name": "ObserverAlreadyVoted",
      "type": "error"
    },
    {
      "inputs": [],
      "name": "ObserverNotFound",
      "type": "error"
    },
    {
      "inputs": [],
      "name": "VotingEndTimeNotArrived",
      "type": "error"
    },
    {
      "inputs": [],
      "name": "VotingStarted",
      "type": "error"
    },
    {
      "inputs": [
        {
          "internalType": "string",
          "name": "",
          "type": "string"
        }
      ],
      "name": "documentList",
      "outputs": [
        {
          "internalType": "bytes32",
          "name": "hash",
          "type": "bytes32"
        },
        {
          "internalType": "address",
          "name": "employer",
          "type": "address"
        },
        {
          "internalType": "address",
          "name": "employee",
          "type": "address"
        },
        {
          "internalType": "uint256",
          "name": "employeeAmount",
          "type": "uint256"
        },
        {
          "internalType": "uint256",
          "name": "employerAmount",
          "type": "uint256"
        },
        {
          "internalType": "uint256",
          "name": "endTime",
          "type": "uint256"
        },
        {
          "internalType": "bool",
          "name": "exists",
          "type": "bool"
        },
        {
          "internalType": "bool",
          "name": "hasSettled",
          "type": "bool"
        },
        {
          "internalType": "enum Documents.WithdrawType",
          "name": "withdrawType",
          "type": "uint8"
        },
        {
          "internalType": "bool",
          "name": "hasEmployerCanceled",
          "type": "bool"
        },
        {
          "internalType": "bool",
          "name": "hasEmployeeCanceled",
          "type": "bool"
        }
      ],
      "stateMutability": "view",
      "type": "function"
    },
    {
      "inputs": [
        {
          "internalType": "string",
          "name": "",
          "type": "string"
        },
        {
          "internalType": "uint256",
          "name": "",
          "type": "uint256"
        }
      ],
      "name": "observerAddresses",
      "outputs": [
        {
          "internalType": "address",
          "name": "",
          "type": "address"
        }
      ],
      "stateMutability": "view",
      "type": "function"
    },
    {
      "inputs": [
        {
          "internalType": "string",
          "name": "",
          "type": "string"
        },
        {
          "internalType": "address",
          "name": "",
          "type": "address"
        }
      ],
      "name": "observers",
      "outputs": [
        {
          "internalType": "enum Documents.ObserverVote",
          "name": "vote",
          "type": "uint8"
        },
        {
          "internalType": "bool",
          "name": "exists",
          "type": "bool"
        },
        {
          "internalType": "bool",
          "name": "hasVoted",
          "type": "bool"
        }
      ],
      "stateMutability": "view",
      "type": "function"
    },
    {
      "inputs": [],
      "name": "owner",
      "outputs": [
        {
          "internalType": "address",
          "name": "",
          "type": "address"
        }
      ],
      "stateMutability": "view",
      "type": "function"
    },
    {
      "inputs": [
        {
          "internalType": "string",
          "name": "",
          "type": "string"
        }
      ],
      "name": "votingProps",
      "outputs": [
        {
          "internalType": "bool",
          "name": "hasRequestedForVoting",
          "type": "bool"
        },
        {
          "internalType": "uint256",
          "name": "endVotingTime",
          "type": "uint256"
        },
        {
          "internalType": "int8",
          "name": "votingResult",
          "type": "int8"
        },
        {
          "internalType": "uint256",
          "name": "voteCount",
          "type": "uint256"
        }
      ],
      "stateMutability": "view",
      "type": "function"
    },
    {
      "inputs": [
        {
          "internalType": "string",
          "name": "docLink",
          "type": "string"
        }
      ],
      "name": "hasSettled",
      "outputs": [
        {
          "internalType": "bool",
          "name": "",
          "type": "bool"
        }
      ],
      "stateMutability": "view",
      "type": "function"
    },
    {
      "inputs": [
        {
          "internalType": "string",
          "name": "docLink",
          "type": "string"
        }
      ],
      "name": "getDocObservers",
      "outputs": [
        {
          "internalType": "address[]",
          "name": "",
          "type": "address[]"
        }
      ],
      "stateMutability": "view",
      "type": "function"
    },
    {
      "inputs": [
        {
          "internalType": "string",
          "name": "docLink",
          "type": "string"
        },
        {
          "internalType": "bytes32",
          "name": "hash",
          "type": "bytes32"
        },
        {
          "internalType": "uint256",
          "name": "employeeAmount",
          "type": "uint256"
        },
        {
          "internalType": "uint256",
          "name": "endTime",
          "type": "uint256"
        }
      ],
      "name": "add",
      "outputs": [],
      "stateMutability": "payable",
      "type": "function"
    },
    {
      "inputs": [
        {
          "internalType": "string",
          "name": "docLink",
          "type": "string"
        }
      ],
      "name": "employeeSign",
      "outputs": [],
      "stateMutability": "payable",
      "type": "function"
    },
    {
      "inputs": [
        {
          "internalType": "string",
          "name": "docLink",
          "type": "string"
        }
      ],
      "name": "oneWayCancel",
      "outputs": [],
      "stateMutability": "nonpayable",
      "type": "function"
    },
    {
      "inputs": [
        {
          "internalType": "string",
          "name": "docLink",
          "type": "string"
        }
      ],
      "name": "twoWayCancel",
      "outputs": [],
      "stateMutability": "nonpayable",
      "type": "function"
    },
    {
      "inputs": [
        {
          "internalType": "string",
          "name": "docLink",
          "type": "string"
        }
      ],
      "name": "requestVoting",
      "outputs": [],
      "stateMutability": "nonpayable",
      "type": "function"
    },
    {
      "inputs": [
        {
          "internalType": "string",
          "name": "docLink",
          "type": "string"
        },
        {
          "internalType": "enum Documents.ObserverVote",
          "name": "voteValue",
          "type": "uint8"
        }
      ],
      "name": "vote",
      "outputs": [],
      "stateMutability": "nonpayable",
      "type": "function"
    },
    {
      "inputs": [
        {
          "internalType": "string",
          "name": "docLink",
          "type": "string"
        }
      ],
      "name": "finishVotingDueTime",
      "outputs": [],
      "stateMutability": "nonpayable",
      "type": "function"
    }
  ],
  "bytecode": "0x60c06040523480156200001157600080fd5b5060405162003561380380620035618339818101604052810190620000379190620000c3565b3373ffffffffffffffffffffffffffffffffffffffff1660808173ffffffffffffffffffffffffffffffffffffffff1660601b815250508073ffffffffffffffffffffffffffffffffffffffff1660a08173ffffffffffffffffffffffffffffffffffffffff1660601b815250505062000148565b600081519050620000bd816200012e565b92915050565b600060208284031215620000dc57620000db62000129565b5b6000620000ec84828501620000ac565b91505092915050565b6000620001028262000109565b9050919050565b600073ffffffffffffffffffffffffffffffffffffffff82169050919050565b600080fd5b6200013981620000f5565b81146200014557600080fd5b50565b60805160601c60a05160601c6133d86200018960003960008181610ad901528181611f8d0152818161235c01526124c60152600061090301526133d86000f3fe6080604052600436106100dd5760003560e01c80639d2c48a91161007f578063cc0f4f7211610059578063cc0f4f72146102cd578063d7e8c7e21461030a578063e0e103421461034a578063e21af90b14610366576100dd565b80639d2c48a91461023c578063ac9844a214610265578063b2871e31146102a4576100dd565b80638aefccb6116100bb5780638aefccb6146101785780638b74d7df146101a15780638da5cb5b146101e857806390ca27f314610213576100dd565b806309320317146100e257806354fe67571461011f5780637d156bdd1461015c575b600080fd5b3480156100ee57600080fd5b5061010960048036038101906101049190612859565b61038f565b6040516101169190612c03565b60405180910390f35b34801561012b57600080fd5b5061014660048036038101906101419190612859565b61043e565b6040516101539190612c25565b60405180910390f35b61017660048036038101906101719190612859565b6104e4565b005b34801561018457600080fd5b5061019f600480360381019061019a9190612859565b610611565b005b3480156101ad57600080fd5b506101c860048036038101906101c3919061298e565b610810565b6040516101df9b9a99989796959493929190612c85565b60405180910390f35b3480156101f457600080fd5b506101fd610901565b60405161020a9190612be8565b60405180910390f35b34801561021f57600080fd5b5061023a6004803603810190610235919061292e565b610925565b005b34801561024857600080fd5b50610263600480360381019061025e9190612859565b610dc8565b005b34801561027157600080fd5b5061028c600480360381019061028791906129d7565b611139565b60405161029b93929190612d30565b60405180910390f35b3480156102b057600080fd5b506102cb60048036038101906102c69190612859565b6111ad565b005b3480156102d957600080fd5b506102f460048036038101906102ef9190612a33565b611486565b6040516103019190612be8565b60405180910390f35b34801561031657600080fd5b50610331600480360381019061032c919061298e565b6114ea565b6040516103419493929190612c40565b60405180910390f35b610364600480360381019061035f91906128a6565b61154a565b005b34801561037257600080fd5b5061038d60048036038101906103889190612859565b611732565b005b6060600283836040516103a3929190612bcf565b908152602001604051809103902080548060200260200160405190810160405280929190818152602001828054801561043157602002820191906000526020600020905b8160009054906101000a900473ffffffffffffffffffffffffffffffffffffffff1673ffffffffffffffffffffffffffffffffffffffff16815260200190600101908083116103e7575b5050505050905092915050565b6000828260008282604051610454929190612bcf565b908152602001604051809103902060060160009054906101000a900460ff166104a9576040517f80375d5a00000000000000000000000000000000000000000000000000000000815260040160405180910390fd5b600085856040516104bb929190612bcf565b908152602001604051809103902060060160019054906101000a900460ff169250505092915050565b8181600082826040516104f8929190612bcf565b908152602001604051809103902060060160009054906101000a900460ff1661054d576040517f80375d5a00000000000000000000000000000000000000000000000000000000815260040160405180910390fd5b6000848460405161055f929190612bcf565b90815260200160405180910390206003015434146105a9576040517f1101129400000000000000000000000000000000000000000000000000000000815260040160405180910390fd5b33600085856040516105bc929190612bcf565b908152602001604051809103902060020160006101000a81548173ffffffffffffffffffffffffffffffffffffffff021916908373ffffffffffffffffffffffffffffffffffffffff16021790555050505050565b818160008282604051610625929190612bcf565b908152602001604051809103902060060160009054906101000a900460ff1661067a576040517f80375d5a00000000000000000000000000000000000000000000000000000000815260040160405180910390fd5b83836000828260405161068e929190612bcf565b908152602001604051809103902060020160009054906101000a900473ffffffffffffffffffffffffffffffffffffffff1673ffffffffffffffffffffffffffffffffffffffff163373ffffffffffffffffffffffffffffffffffffffff161415801561076a575060008282604051610708929190612bcf565b908152602001604051809103902060010160009054906101000a900473ffffffffffffffffffffffffffffffffffffffff1673ffffffffffffffffffffffffffffffffffffffff163373ffffffffffffffffffffffffffffffffffffffff1614155b156107a1576040517f4ca8886700000000000000000000000000000000000000000000000000000000815260040160405180910390fd5b600386866040516107b3929190612bcf565b9081526020016040518091039020600101544210156107fe576040517f857a6bc200000000000000000000000000000000000000000000000000000000815260040160405180910390fd5b61080886866119c7565b505050505050565b6000818051602081018201805184825260208301602085012081835280955050505050506000915090508060000154908060010160009054906101000a900473ffffffffffffffffffffffffffffffffffffffff16908060020160009054906101000a900473ffffffffffffffffffffffffffffffffffffffff16908060030154908060040154908060050154908060060160009054906101000a900460ff16908060060160019054906101000a900460ff16908060060160029054906101000a900460ff16908060060160039054906101000a900460ff16908060060160049054906101000a900460ff1690508b565b7f000000000000000000000000000000000000000000000000000000000000000081565b828260008282604051610939929190612bcf565b908152602001604051809103902060060160009054906101000a900460ff1661098e576040517f80375d5a00000000000000000000000000000000000000000000000000000000815260040160405180910390fd5b600185856040516109a0929190612bcf565b908152602001604051809103902060003373ffffffffffffffffffffffffffffffffffffffff1673ffffffffffffffffffffffffffffffffffffffff16815260200190815260200160002060000160019054906101000a900460ff16610a32576040517f5889c7e600000000000000000000000000000000000000000000000000000000815260040160405180910390fd5b60018585604051610a44929190612bcf565b908152602001604051809103902060003373ffffffffffffffffffffffffffffffffffffffff1673ffffffffffffffffffffffffffffffffffffffff16815260200190815260200160002060000160029054906101000a900460ff1615610ad7576040517f48ca52b600000000000000000000000000000000000000000000000000000000815260040160405180910390fd5b7f000000000000000000000000000000000000000000000000000000000000000073ffffffffffffffffffffffffffffffffffffffff16634b38994242336040518363ffffffff1660e01b8152600401610b32929190612d67565b600060405180830381600087803b158015610b4c57600080fd5b505af1158015610b60573d6000803e3d6000fd5b505050508260018686604051610b77929190612bcf565b908152602001604051809103902060003373ffffffffffffffffffffffffffffffffffffffff1673ffffffffffffffffffffffffffffffffffffffff16815260200190815260200160002060000160006101000a81548160ff02191690836001811115610be757610be661324d565b5b02179055506001808686604051610bff929190612bcf565b908152602001604051809103902060003373ffffffffffffffffffffffffffffffffffffffff1673ffffffffffffffffffffffffffffffffffffffff16815260200190815260200160002060000160026101000a81548160ff021916908315150217905550600160038686604051610c78929190612bcf565b90815260200160405180910390206003016000828254610c989190612f02565b92505081905550600180811115610cb257610cb161324d565b5b836001811115610cc557610cc461324d565b5b1415610d2b57600160038686604051610cdf929190612bcf565b908152602001604051809103902060020160008282829054906101000a900460000b610d0b9190612fe3565b92506101000a81548160ff021916908360000b60ff160217905550610d87565b600160038686604051610d3f929190612bcf565b908152602001604051809103902060020160008282829054906101000a900460000b610d6b9190612e8d565b92506101000a81548160ff021916908360000b60ff1602179055505b600560ff1660038686604051610d9e929190612bcf565b9081526020016040518091039020600301541415610dc157610dc085856119c7565b5b5050505050565b818160008282604051610ddc929190612bcf565b908152602001604051809103902060060160009054906101000a900460ff16610e31576040517f80375d5a00000000000000000000000000000000000000000000000000000000815260040160405180910390fd5b838360008282604051610e45929190612bcf565b908152602001604051809103902060020160009054906101000a900473ffffffffffffffffffffffffffffffffffffffff1673ffffffffffffffffffffffffffffffffffffffff163373ffffffffffffffffffffffffffffffffffffffff1614158015610f21575060008282604051610ebf929190612bcf565b908152602001604051809103902060010160009054906101000a900473ffffffffffffffffffffffffffffffffffffffff1673ffffffffffffffffffffffffffffffffffffffff163373ffffffffffffffffffffffffffffffffffffffff1614155b15610f58576040517f4ca8886700000000000000000000000000000000000000000000000000000000815260040160405180910390fd5b60038686604051610f6a929190612bcf565b908152602001604051809103902060000160009054906101000a900460ff1615610fc0576040517f877e254800000000000000000000000000000000000000000000000000000000815260040160405180910390fd5b60008686604051610fd2929190612bcf565b908152602001604051809103902060010160009054906101000a900473ffffffffffffffffffffffffffffffffffffffff1673ffffffffffffffffffffffffffffffffffffffff163373ffffffffffffffffffffffffffffffffffffffff1614156110785760016000878760405161104b929190612bcf565b908152602001604051809103902060060160036101000a81548160ff0219169083151502179055506110b5565b60016000878760405161108c929190612bcf565b908152602001604051809103902060060160046101000a81548160ff0219169083151502179055505b600086866040516110c7929190612bcf565b908152602001604051809103902060060160049054906101000a900460ff16801561111f5750600086866040516110ff929190612bcf565b908152602001604051809103902060060160039054906101000a900460ff165b156111315761113060028787611b1f565b5b505050505050565b600182805160208101820180518482526020830160208501208183528095505050505050602052806000526040600020600091509150508060000160009054906101000a900460ff16908060000160019054906101000a900460ff16908060000160029054906101000a900460ff16905083565b8181600082826040516111c1929190612bcf565b908152602001604051809103902060060160009054906101000a900460ff16611216576040517f80375d5a00000000000000000000000000000000000000000000000000000000815260040160405180910390fd5b83836000828260405161122a929190612bcf565b908152602001604051809103902060020160009054906101000a900473ffffffffffffffffffffffffffffffffffffffff1673ffffffffffffffffffffffffffffffffffffffff163373ffffffffffffffffffffffffffffffffffffffff16141580156113065750600082826040516112a4929190612bcf565b908152602001604051809103902060010160009054906101000a900473ffffffffffffffffffffffffffffffffffffffff1673ffffffffffffffffffffffffffffffffffffffff163373ffffffffffffffffffffffffffffffffffffffff1614155b1561133d576040517f4ca8886700000000000000000000000000000000000000000000000000000000815260040160405180910390fd5b6000868660405161134f929190612bcf565b90815260200160405180910390206005015442101561139a576040517f3915f99a00000000000000000000000000000000000000000000000000000000815260040160405180910390fd5b600386866040516113ac929190612bcf565b908152602001604051809103902060000160009054906101000a900460ff1615611402576040517fedd6722900000000000000000000000000000000000000000000000000000000815260040160405180910390fd5b600160038787604051611416929190612bcf565b908152602001604051809103902060000160006101000a81548160ff02191690831515021790555062278d004261144d9190612f02565b6003878760405161145f929190612bcf565b90815260200160405180910390206001018190555061147e8686611f89565b505050505050565b60028280516020810182018051848252602083016020850120818352809550505050505081815481106114b857600080fd5b906000526020600020016000915091509054906101000a900473ffffffffffffffffffffffffffffffffffffffff1681565b6003818051602081018201805184825260208301602085012081835280955050505050506000915090508060000160009054906101000a900460ff16908060010154908060020160009054906101000a900460000b908060030154905084565b6000858560405161155c929190612bcf565b908152602001604051809103902060060160009054906101000a900460ff16156115b2576040517f23369fa600000000000000000000000000000000000000000000000000000000815260040160405180910390fd5b60003414156115ed576040517f1101129400000000000000000000000000000000000000000000000000000000815260040160405180910390fd5b600160008686604051611601929190612bcf565b908152602001604051809103902060060160006101000a81548160ff021916908315150217905550826000868660405161163c929190612bcf565b9081526020016040518091039020600001819055503460008686604051611664929190612bcf565b908152602001604051809103902060040181905550336000868660405161168c929190612bcf565b908152602001604051809103902060010160006101000a81548173ffffffffffffffffffffffffffffffffffffffff021916908373ffffffffffffffffffffffffffffffffffffffff16021790555081600086866040516116ee929190612bcf565b9081526020016040518091039020600301819055508060008686604051611716929190612bcf565b9081526020016040518091039020600501819055505050505050565b818160008282604051611746929190612bcf565b908152602001604051809103902060060160009054906101000a900460ff1661179b576040517f80375d5a00000000000000000000000000000000000000000000000000000000815260040160405180910390fd5b8383600082826040516117af929190612bcf565b908152602001604051809103902060020160009054906101000a900473ffffffffffffffffffffffffffffffffffffffff1673ffffffffffffffffffffffffffffffffffffffff163373ffffffffffffffffffffffffffffffffffffffff161415801561188b575060008282604051611829929190612bcf565b908152602001604051809103902060010160009054906101000a900473ffffffffffffffffffffffffffffffffffffffff1673ffffffffffffffffffffffffffffffffffffffff163373ffffffffffffffffffffffffffffffffffffffff1614155b156118c2576040517f4ca8886700000000000000000000000000000000000000000000000000000000815260040160405180910390fd5b600386866040516118d4929190612bcf565b908152602001604051809103902060000160009054906101000a900460ff161561192a576040517f877e254800000000000000000000000000000000000000000000000000000000815260040160405180910390fd5b6000868660405161193c929190612bcf565b908152602001604051809103902060010160009054906101000a900473ffffffffffffffffffffffffffffffffffffffff1673ffffffffffffffffffffffffffffffffffffffff163373ffffffffffffffffffffffffffffffffffffffff1614156119b2576119ad60008787611b1f565b6119bf565b6119be60018787611b1f565b5b505050505050565b6119d18282612249565b6064600160ff16600084846040516119ea929190612bcf565b908152602001604051809103902060030154611a069190612f89565b611a109190612f58565b60008383604051611a22929190612bcf565b90815260200160405180910390206003016000828254611a429190613058565b925050819055506064600160ff1660008484604051611a62929190612bcf565b908152602001604051809103902060040154611a7e9190612f89565b611a889190612f58565b60008383604051611a9a929190612bcf565b90815260200160405180910390206004016000828254611aba9190613058565b92505081905550600060038383604051611ad5929190612bcf565b908152602001604051809103902060020160009054906101000a900460000b60000b1215611b0e57611b0960008383611b1f565b611b1b565b611b1a60018383611b1f565b5b5050565b60008282604051611b31929190612bcf565b908152602001604051809103902060060160019054906101000a900460ff1615611b87576040517f560ff90000000000000000000000000000000000000000000000000000000000815260040160405180910390fd5b60006002811115611b9b57611b9a61324d565b5b836002811115611bae57611bad61324d565b5b1415611c945760008282604051611bc6929190612bcf565b908152602001604051809103902060020160009054906101000a900473ffffffffffffffffffffffffffffffffffffffff1673ffffffffffffffffffffffffffffffffffffffff166108fc60008484604051611c23929190612bcf565b90815260200160405180910390206003015460008585604051611c47929190612bcf565b908152602001604051809103902060040154611c639190612f02565b9081150290604051600060405180830381858888f19350505050158015611c8e573d6000803e3d6000fd5b50611efd565b60016002811115611ca857611ca761324d565b5b836002811115611cbb57611cba61324d565b5b1415611da15760008282604051611cd3929190612bcf565b908152602001604051809103902060010160009054906101000a900473ffffffffffffffffffffffffffffffffffffffff1673ffffffffffffffffffffffffffffffffffffffff166108fc60008484604051611d30929190612bcf565b90815260200160405180910390206003015460008585604051611d54929190612bcf565b908152602001604051809103902060040154611d709190612f02565b9081150290604051600060405180830381858888f19350505050158015611d9b573d6000803e3d6000fd5b50611efc565b60008282604051611db3929190612bcf565b908152602001604051809103902060010160009054906101000a900473ffffffffffffffffffffffffffffffffffffffff1673ffffffffffffffffffffffffffffffffffffffff166108fc60008484604051611e10929190612bcf565b9081526020016040518091039020600401549081150290604051600060405180830381858888f19350505050158015611e4d573d6000803e3d6000fd5b5060008282604051611e60929190612bcf565b908152602001604051809103902060020160009054906101000a900473ffffffffffffffffffffffffffffffffffffffff1673ffffffffffffffffffffffffffffffffffffffff166108fc60008484604051611ebd929190612bcf565b9081526020016040518091039020600301549081150290604051600060405180830381858888f19350505050158015611efa573d6000803e3d6000fd5b505b5b600160008383604051611f11929190612bcf565b908152602001604051809103902060060160016101000a81548160ff0219169083151502179055508260008383604051611f4c929190612bcf565b908152602001604051809103902060060160026101000a81548160ff02191690836002811115611f7f57611f7e61324d565b5b0217905550505050565b60007f000000000000000000000000000000000000000000000000000000000000000073ffffffffffffffffffffffffffffffffffffffff16636068629a6040518163ffffffff1660e01b815260040160006040518083038186803b158015611ff157600080fd5b505afa158015612005573d6000803e3d6000fd5b505050506040513d6000823e3d601f19601f8201168201806040525081019061202e9190612810565b90506000815190506000600560ff16905060005b8181101561224157600042448360405160200161206193929190612d90565b6040516020818303038152906040528051906020012060001c90506000848261208a91906131be565b905060008682815181106120a1576120a061327c565b5b60200260200101519050600189896040516120bd929190612bcf565b908152602001604051809103902060008273ffffffffffffffffffffffffffffffffffffffff1673ffffffffffffffffffffffffffffffffffffffff16815260200190815260200160002060000160019054906101000a900460ff161561213157848061212990613175565b95505061222b565b6001808a8a604051612144929190612bcf565b908152602001604051809103902060008373ffffffffffffffffffffffffffffffffffffffff1673ffffffffffffffffffffffffffffffffffffffff16815260200190815260200160002060000160016101000a81548160ff021916908315150217905550600289896040516121bb929190612bcf565b9081526020016040518091039020819080600181540180825580915050600190039060005260206000200160009091909190916101000a81548173ffffffffffffffffffffffffffffffffffffffff021916908373ffffffffffffffffffffffffffffffffffffffff1602179055505b505050808061223990613175565b915050612042565b505050505050565b6000600560ff166064600160ff1660008686604051612269929190612bcf565b9081526020016040518091039020600301546000878760405161228d929190612bcf565b9081526020016040518091039020600401546122a99190612f02565b6122b39190612f89565b6122bd9190612f58565b6122c79190612f58565b905060005b600284846040516122de929190612bcf565b9081526020016040518091039020805490508110156125735760006002858560405161230b929190612bcf565b9081526020016040518091039020828154811061232b5761232a61327c565b5b9060005260206000200160009054906101000a900473ffffffffffffffffffffffffffffffffffffffff16905060007f000000000000000000000000000000000000000000000000000000000000000073ffffffffffffffffffffffffffffffffffffffff16631975c9b9836040518263ffffffff1660e01b81526004016123b39190612be8565b60c06040518083038186803b1580156123cb57600080fd5b505afa1580156123df573d6000803e3d6000fd5b505050506040513d601f19601f820116820180604052508101906124039190612a8f565b60000151905060006064601460ff168361241d9190612f89565b6124279190612f58565b90508085101561247d578273ffffffffffffffffffffffffffffffffffffffff166108fc869081150290604051600060405180830381858888f19350505050158015612477573d6000803e3d6000fd5b5061255d565b8273ffffffffffffffffffffffffffffffffffffffff166108fc829081150290604051600060405180830381858888f193505050501580156124c3573d6000803e3d6000fd5b507f000000000000000000000000000000000000000000000000000000000000000073ffffffffffffffffffffffffffffffffffffffff166343d2da4e828761250c9190613058565b856040518363ffffffff1660e01b815260040161252a929190612d67565b600060405180830381600087803b15801561254457600080fd5b505af1158015612558573d6000803e3d6000fd5b505050505b505050808061256b90613175565b9150506122cc565b50505050565b600061258c61258784612dec565b612dc7565b905080838252602082019050828560208602820111156125af576125ae6132e9565b5b60005b858110156125df57816125c58882612640565b8452602084019350602083019250506001810190506125b2565b5050509392505050565b60006125fc6125f784612e18565b612dc7565b905082815260208101848484011115612618576126176132ee565b5b612623848285613135565b509392505050565b60008135905061263a81613336565b92915050565b60008151905061264f81613336565b92915050565b600082601f83011261266a576126696132df565b5b815161267a848260208601612579565b91505092915050565b6000815190506126928161334d565b92915050565b6000813590506126a781613364565b92915050565b6000813590506126bc8161337b565b92915050565b60008083601f8401126126d8576126d76132df565b5b8235905067ffffffffffffffff8111156126f5576126f46132da565b5b602083019150836001820283011115612711576127106132e9565b5b9250929050565b600082601f83011261272d5761272c6132df565b5b813561273d8482602086016125e9565b91505092915050565b600060c0828403121561275c5761275b6132e4565b5b61276660c0612dc7565b90506000612776848285016127fb565b600083015250602061278a848285016127fb565b602083015250604061279e84828501612683565b60408301525060606127b284828501612683565b60608301525060806127c684828501612683565b60808301525060a06127da84828501612683565b60a08301525092915050565b6000813590506127f58161338b565b92915050565b60008151905061280a8161338b565b92915050565b600060208284031215612826576128256132f8565b5b600082015167ffffffffffffffff811115612844576128436132f3565b5b61285084828501612655565b91505092915050565b600080602083850312156128705761286f6132f8565b5b600083013567ffffffffffffffff81111561288e5761288d6132f3565b5b61289a858286016126c2565b92509250509250929050565b6000806000806000608086880312156128c2576128c16132f8565b5b600086013567ffffffffffffffff8111156128e0576128df6132f3565b5b6128ec888289016126c2565b955095505060206128ff88828901612698565b9350506040612910888289016127e6565b9250506060612921888289016127e6565b9150509295509295909350565b600080600060408486031215612947576129466132f8565b5b600084013567ffffffffffffffff811115612965576129646132f3565b5b612971868287016126c2565b93509350506020612984868287016126ad565b9150509250925092565b6000602082840312156129a4576129a36132f8565b5b600082013567ffffffffffffffff8111156129c2576129c16132f3565b5b6129ce84828501612718565b91505092915050565b600080604083850312156129ee576129ed6132f8565b5b600083013567ffffffffffffffff811115612a0c57612a0b6132f3565b5b612a1885828601612718565b9250506020612a298582860161262b565b9150509250929050565b60008060408385031215612a4a57612a496132f8565b5b600083013567ffffffffffffffff811115612a6857612a676132f3565b5b612a7485828601612718565b9250506020612a85858286016127e6565b9150509250929050565b600060c08284031215612aa557612aa46132f8565b5b6000612ab384828501612746565b91505092915050565b6000612ac88383612ad4565b60208301905092915050565b612add8161308c565b82525050565b612aec8161308c565b82525050565b6000612afd82612e59565b612b078185612e71565b9350612b1283612e49565b8060005b83811015612b43578151612b2a8882612abc565b9750612b3583612e64565b925050600181019050612b16565b5085935050505092915050565b612b598161309e565b82525050565b612b68816130aa565b82525050565b612b7781613111565b82525050565b612b8681613123565b82525050565b612b95816130da565b82525050565b6000612ba78385612e82565b9350612bb4838584613135565b82840190509392505050565b612bc981613107565b82525050565b6000612bdc828486612b9b565b91508190509392505050565b6000602082019050612bfd6000830184612ae3565b92915050565b60006020820190508181036000830152612c1d8184612af2565b905092915050565b6000602082019050612c3a6000830184612b50565b92915050565b6000608082019050612c556000830187612b50565b612c626020830186612bc0565b612c6f6040830185612b8c565b612c7c6060830184612bc0565b95945050505050565b600061016082019050612c9b600083018e612b5f565b612ca8602083018d612ae3565b612cb5604083018c612ae3565b612cc2606083018b612bc0565b612ccf608083018a612bc0565b612cdc60a0830189612bc0565b612ce960c0830188612b50565b612cf660e0830187612b50565b612d04610100830186612b7d565b612d12610120830185612b50565b612d20610140830184612b50565b9c9b505050505050505050505050565b6000606082019050612d456000830186612b6e565b612d526020830185612b50565b612d5f6040830184612b50565b949350505050565b6000604082019050612d7c6000830185612bc0565b612d896020830184612ae3565b9392505050565b6000606082019050612da56000830186612bc0565b612db26020830185612bc0565b612dbf6040830184612bc0565b949350505050565b6000612dd1612de2565b9050612ddd8282613144565b919050565b6000604051905090565b600067ffffffffffffffff821115612e0757612e066132ab565b5b602082029050602081019050919050565b600067ffffffffffffffff821115612e3357612e326132ab565b5b612e3c826132fd565b9050602081019050919050565b6000819050602082019050919050565b600081519050919050565b6000602082019050919050565b600082825260208201905092915050565b600081905092915050565b6000612e98826130da565b9150612ea3836130da565b925081607f03831360008312151615612ebf57612ebe6131ef565b5b817fffffffffffffffffffffffffffffffffffffffffffffffffffffffffffffff80038312600083121615612ef757612ef66131ef565b5b828201905092915050565b6000612f0d82613107565b9150612f1883613107565b9250827fffffffffffffffffffffffffffffffffffffffffffffffffffffffffffffffff03821115612f4d57612f4c6131ef565b5b828201905092915050565b6000612f6382613107565b9150612f6e83613107565b925082612f7e57612f7d61321e565b5b828204905092915050565b6000612f9482613107565b9150612f9f83613107565b9250817fffffffffffffffffffffffffffffffffffffffffffffffffffffffffffffffff0483118215151615612fd857612fd76131ef565b5b828202905092915050565b6000612fee826130da565b9150612ff9836130da565b9250827fffffffffffffffffffffffffffffffffffffffffffffffffffffffffffffff8001821260008412151615613034576130336131ef565b5b82607f01821360008412161561304d5761304c6131ef565b5b828203905092915050565b600061306382613107565b915061306e83613107565b925082821015613081576130806131ef565b5b828203905092915050565b6000613097826130e7565b9050919050565b60008115159050919050565b6000819050919050565b60008190506130c28261330e565b919050565b60008190506130d582613322565b919050565b60008160000b9050919050565b600073ffffffffffffffffffffffffffffffffffffffff82169050919050565b6000819050919050565b600061311c826130b4565b9050919050565b600061312e826130c7565b9050919050565b82818337600083830152505050565b61314d826132fd565b810181811067ffffffffffffffff8211171561316c5761316b6132ab565b5b80604052505050565b600061318082613107565b91507fffffffffffffffffffffffffffffffffffffffffffffffffffffffffffffffff8214156131b3576131b26131ef565b5b600182019050919050565b60006131c982613107565b91506131d483613107565b9250826131e4576131e361321e565b5b828206905092915050565b7f4e487b7100000000000000000000000000000000000000000000000000000000600052601160045260246000fd5b7f4e487b7100000000000000000000000000000000000000000000000000000000600052601260045260246000fd5b7f4e487b7100000000000000000000000000000000000000000000000000000000600052602160045260246000fd5b7f4e487b7100000000000000000000000000000000000000000000000000000000600052603260045260246000fd5b7f4e487b7100000000000000000000000000000000000000000000000000000000600052604160045260246000fd5b600080fd5b600080fd5b600080fd5b600080fd5b600080fd5b600080fd5b600080fd5b6000601f19601f8301169050919050565b6002811061331f5761331e61324d565b5b50565b600381106133335761333261324d565b5b50565b61333f8161308c565b811461334a57600080fd5b50565b6133568161309e565b811461336157600080fd5b50565b61336d816130aa565b811461337857600080fd5b50565b6002811061338857600080fd5b50565b61339481613107565b811461339f57600080fd5b5056fea2646970667358221220242276fdc571ceba50f504496c233700c525bb65a6236a589dc287407efb2e6e64736f6c63430008060033",
  "immutableReferences": {
    "139": [
      {
        "length": 32,
        "start": 2307
      }
    ],
    "141": [
      {
        "length": 32,
        "start": 2777
      },
      {
        "length": 32,
        "start": 8077
      },
      {
        "length": 32,
        "start": 9052
      },
      {
        "length": 32,
        "start": 9414
      }
    ]
  },
  "source": "// SPDX-License-Identifier: GPL-3.0\npragma solidity ^0.8.6;\n\nerror InsufficientValue();\nerror AccessDenied();\nerror AlreadyExists();\nerror DoesntExist();\nerror EndTimeNotArrived();\nerror AlreadySettled();\nerror ObserverNotFound();\nerror ObserverAlreadyVoted();\nerror AlreadyRequestedForVoting();\nerror NotEnoughLinkForGas();\nerror VotingEndTimeNotArrived();\nerror VotingStarted();\n\nstruct Observer {\n    uint amount;\n    uint lastVote;\n    bool hasVerified;\n    bool hasSettled;\n    bool exists;\n    bool isFired;\n}\n\ninterface ObserverContract {\n    function getObserversAddrList() external view returns (address[] memory);\n    function observersList(address)  external view returns (Observer memory);\n    function increaseObserverAmount(uint amount, address observer) external;\n    function changeLastVote(uint time, address observer) external;\n}\n\ncontract Documents {\n    enum WithdrawType {\n        Employee,\n        Employer,\n        Revert\n    }\n    \n    enum ObserverVote {\n        Employer,\n        Employee\n    }\n    \n    struct ObserverResult {\n        ObserverVote vote;\n        bool exists;\n        bool hasVoted;\n    }\n    \n    struct VotingProps {\n        bool hasRequestedForVoting;\n        uint endVotingTime;\n        int8 votingResult;\n        uint voteCount;\n    }\n    \n    struct Document {\n        bytes32 hash;\n        address employer;\n        address employee;\n        uint employeeAmount;\n        uint employerAmount;\n        uint endTime;\n        bool exists;\n        \n        bool hasSettled;\n        WithdrawType withdrawType;\n        \n        bool hasEmployerCanceled;\n        bool hasEmployeeCanceled;\n    }\n    \n    mapping (string => Document) public documentList;\n    mapping (string => mapping(address => ObserverResult)) public observers;\n    mapping (string => address[]) public observerAddresses;\n    mapping (string => VotingProps) public votingProps;\n    \n    address immutable public owner;\n    address immutable private observerContractAddr;\n\n    uint8 constant private votersCount = 5;\n    uint8 constant private votersFeePercent = 1;\n    uint8 constant private votersMaxCashFeePercent = 20;\n\n    modifier requireOwner() {\n        if(msg.sender != owner) revert AccessDenied();\n        _;\n    }\n    \n    modifier requireEmployerOrEmployee(string calldata docLink){\n        if(msg.sender != documentList[docLink].employee && msg.sender != documentList[docLink].employer) revert AccessDenied();\n        _;\n    }\n    \n    modifier requireDoc(string calldata docLink) {\n        if(!documentList[docLink].exists) revert DoesntExist();\n        _;\n    }\n    \n    constructor(address newObserverContractAddr) {\n        owner = msg.sender;\n        observerContractAddr = newObserverContractAddr;\n    }\n    \n    // Getters\n    \n    function hasSettled(string calldata docLink) external view requireDoc(docLink) returns (bool) {\n        return documentList[docLink].hasSettled;\n    }\n\n    function getDocObservers(string calldata docLink) external view returns (address[] memory) {\n        return observerAddresses[docLink];\n    }\n    \n    // Initial Sigings\n    \n    function add(string calldata docLink, bytes32 hash, uint employeeAmount, uint endTime) external payable {\n        if(documentList[docLink].exists) revert AlreadyExists();\n        if(msg.value == 0) revert InsufficientValue();\n        \n        documentList[docLink].exists = true;\n        documentList[docLink].hash = hash;\n        \n        documentList[docLink].employerAmount = msg.value;\n        documentList[docLink].employer = msg.sender;\n        documentList[docLink].employeeAmount = employeeAmount;\n        \n        documentList[docLink].endTime = endTime;\n    }\n    \n    function employeeSign(string calldata docLink) external payable requireDoc(docLink) {\n        if(msg.value != documentList[docLink].employeeAmount) revert InsufficientValue();\n        \n        documentList[docLink].employee = msg.sender;\n    }\n    \n    // Withraw Functions\n    \n    function withdraw(WithdrawType withdrawType, string calldata docLink) private {\n        if(documentList[docLink].hasSettled) revert AlreadySettled();\n        \n        if(withdrawType == WithdrawType.Employee) {\n            payable(documentList[docLink].employee).transfer(documentList[docLink].employerAmount + documentList[docLink].employeeAmount);\n        } else if (withdrawType == WithdrawType.Employer){\n            payable(documentList[docLink].employer).transfer(documentList[docLink].employerAmount + documentList[docLink].employeeAmount);\n        }else {\n            payable(documentList[docLink].employer).transfer(documentList[docLink].employerAmount);\n            payable(documentList[docLink].employee).transfer(documentList[docLink].employeeAmount);\n        }\n        \n        documentList[docLink].hasSettled = true;\n        documentList[docLink].withdrawType = withdrawType;\n    }\n    \n    // Cancellation Methods\n    \n    function oneWayCancel(string calldata docLink) external requireDoc(docLink) requireEmployerOrEmployee(docLink) {\n        if(votingProps[docLink].hasRequestedForVoting) revert VotingStarted();\n        \n        if(msg.sender == documentList[docLink].employer) {\n            withdraw(WithdrawType.Employee, docLink);\n        } else {\n            withdraw(WithdrawType.Employer, docLink);\n        }\n    }\n    \n    function twoWayCancel(string calldata docLink) external requireDoc(docLink) requireEmployerOrEmployee(docLink) {\n        if(votingProps[docLink].hasRequestedForVoting) revert VotingStarted();\n        \n        if(msg.sender == documentList[docLink].employer) {\n            documentList[docLink].hasEmployerCanceled = true;\n        } else {\n            documentList[docLink].hasEmployeeCanceled = true;\n        }\n        \n        if(documentList[docLink].hasEmployeeCanceled && documentList[docLink].hasEmployerCanceled) {\n            withdraw(WithdrawType.Revert, docLink);\n        }\n    }\n    \n    // Voting system\n    \n    function requestVoting(string calldata docLink) external requireDoc(docLink) requireEmployerOrEmployee(docLink) {\n        if(block.timestamp < documentList[docLink].endTime) revert EndTimeNotArrived();\n        if(votingProps[docLink].hasRequestedForVoting) revert AlreadyRequestedForVoting();\n        \n        votingProps[docLink].hasRequestedForVoting = true;\n        votingProps[docLink].endVotingTime = block.timestamp + 30 days;\n        \n        pickRandomObservers(docLink);\n    }\n    \n    function vote(string calldata docLink, ObserverVote voteValue) external requireDoc(docLink) {\n        if(!observers[docLink][msg.sender].exists) revert ObserverNotFound();\n        if(observers[docLink][msg.sender].hasVoted) revert ObserverAlreadyVoted();\n        \n        ObserverContract(observerContractAddr).changeLastVote(block.timestamp, msg.sender);\n        \n        observers[docLink][msg.sender].vote = voteValue;\n        observers[docLink][msg.sender].hasVoted = true;\n        votingProps[docLink].voteCount += 1;\n        \n        if(voteValue == ObserverVote.Employee) {\n            votingProps[docLink].votingResult -= 1;\n        } else {\n            votingProps[docLink].votingResult += 1;\n        }\n        \n        \n        if(votingProps[docLink].voteCount == votersCount) {\n            finishVoting(docLink);\n        }\n    }\n    \n    function finishVotingDueTime(string calldata docLink) external requireDoc(docLink) requireEmployerOrEmployee(docLink)  {\n        if(block.timestamp < votingProps[docLink].endVotingTime) revert VotingEndTimeNotArrived();\n        \n        finishVoting(docLink);\n    }\n    \n    function finishVoting(string calldata docLink) private {\n        distributeVotersFee(docLink);\n        \n        documentList[docLink].employeeAmount -= documentList[docLink].employeeAmount * votersFeePercent / 100;\n        documentList[docLink].employerAmount -= documentList[docLink].employerAmount * votersFeePercent / 100;\n        \n        if(votingProps[docLink].votingResult < 0) {\n            withdraw(WithdrawType.Employee, docLink);\n        } else {\n            withdraw(WithdrawType.Employer, docLink);\n        }\n    }\n    \n    function distributeVotersFee(string calldata docLink) private {\n        uint eachVotersFeeAmount = (documentList[docLink].employerAmount + documentList[docLink].employeeAmount) * votersFeePercent / 100 / votersCount;\n        for(uint i =0;i<observerAddresses[docLink].length;i++){\n            address currentObserverAddress = observerAddresses[docLink][i];\n            uint currentVoterAmount = ObserverContract(observerContractAddr).observersList(currentObserverAddress).amount;\n            \n            uint voterMaxFee = currentVoterAmount * votersMaxCashFeePercent / 100;\n\n            if(eachVotersFeeAmount < voterMaxFee) {\n                payable(currentObserverAddress).transfer(eachVotersFeeAmount);\n            } else {\n                payable(currentObserverAddress).transfer(voterMaxFee);\n                ObserverContract(observerContractAddr).increaseObserverAmount(eachVotersFeeAmount - voterMaxFee, currentObserverAddress);\n            }\n        }\n    }\n    \n    // Random Number generators\n    \n    function pickRandomObservers(string calldata docLink) private {\n        address[] memory observersList = ObserverContract(observerContractAddr).getObserversAddrList();\n        uint observersCount = observersList.length;\n        uint votersCountLimit = votersCount;\n\n        for (uint256 i = 0; i < votersCountLimit; i++) {\n            uint randomNumber = uint256(keccak256(abi.encode(block.timestamp, block.difficulty, i)));\n            uint randomNormalizedNumber = (randomNumber % observersCount);\n            address randomObserverAddress = observersList[randomNormalizedNumber];\n\n            if(observers[docLink][randomObserverAddress].exists) {\n                votersCountLimit++;\n            }else {\n                observers[docLink][randomObserverAddress].exists = true;\n                observerAddresses[docLink].push(randomObserverAddress);\n            }\n        }\n    }\n}",
  "sourcePath": "/Users/pmzi/Work/Programming/legalcontracts/Contracts/contracts/Documents.sol",
  "compiler": {
    "name": "solc",
    "version": "0.8.6+commit.11564f7e.Emscripten.clang"
  },
  "schemaVersion": "3.4.9",
  "updatedAt": "2022-08-15T19:29:01.421Z",
  "devdoc": {
    "kind": "dev",
    "methods": {},
    "version": 1
  },
  "userdoc": {
    "kind": "user",
    "methods": {},
    "version": 1
  }
}