{
  "contractName": "Observers",
  "abi": [
    {
      "inputs": [],
      "stateMutability": "nonpayable",
      "type": "constructor"
    },
    {
      "inputs": [],
      "name": "AccessDenied",
      "type": "error"
    },
    {
      "inputs": [],
      "name": "AlreadySettled",
      "type": "error"
    },
    {
      "inputs": [],
      "name": "AlreadySignedUp",
      "type": "error"
    },
    {
      "inputs": [],
      "name": "DoesntExists",
      "type": "error"
    },
    {
      "inputs": [],
      "name": "InsufficientValue",
      "type": "error"
    },
    {
      "inputs": [],
      "name": "NotVerified",
      "type": "error"
    },
    {
      "inputs": [],
      "name": "SettleTimeNotArrived",
      "type": "error"
    },
    {
      "inputs": [],
      "name": "documentContractAddr",
      "outputs": [
        {
          "internalType": "address",
          "name": "",
          "type": "address"
        }
      ],
      "stateMutability": "view",
      "type": "function"
    },
    {
      "inputs": [
        {
          "internalType": "uint256",
          "name": "",
          "type": "uint256"
        }
      ],
      "name": "observersAddrList",
      "outputs": [
        {
          "internalType": "address",
          "name": "",
          "type": "address"
        }
      ],
      "stateMutability": "view",
      "type": "function"
    },
    {
      "inputs": [
        {
          "internalType": "address",
          "name": "",
          "type": "address"
        }
      ],
      "name": "observersList",
      "outputs": [
        {
          "internalType": "uint256",
          "name": "amount",
          "type": "uint256"
        },
        {
          "internalType": "uint256",
          "name": "lastVote",
          "type": "uint256"
        },
        {
          "internalType": "bool",
          "name": "hasVerified",
          "type": "bool"
        },
        {
          "internalType": "bool",
          "name": "hasSettled",
          "type": "bool"
        },
        {
          "internalType": "bool",
          "name": "exists",
          "type": "bool"
        },
        {
          "internalType": "bool",
          "name": "isFired",
          "type": "bool"
        }
      ],
      "stateMutability": "view",
      "type": "function"
    },
    {
      "inputs": [],
      "name": "owner",
      "outputs": [
        {
          "internalType": "address",
          "name": "",
          "type": "address"
        }
      ],
      "stateMutability": "view",
      "type": "function"
    },
    {
      "inputs": [],
      "name": "getObserversAddrList",
      "outputs": [
        {
          "internalType": "address[]",
          "name": "",
          "type": "address[]"
        }
      ],
      "stateMutability": "view",
      "type": "function"
    },
    {
      "inputs": [
        {
          "internalType": "address",
          "name": "newDocContractAddr",
          "type": "address"
        }
      ],
      "name": "setDocumentContractAddress",
      "outputs": [],
      "stateMutability": "nonpayable",
      "type": "function"
    },
    {
      "inputs": [],
      "name": "signup",
      "outputs": [],
      "stateMutability": "payable",
      "type": "function"
    },
    {
      "inputs": [
        {
          "internalType": "address",
          "name": "observer",
          "type": "address"
        }
      ],
      "name": "verify",
      "outputs": [],
      "stateMutability": "nonpayable",
      "type": "function"
    },
    {
      "inputs": [
        {
          "internalType": "uint256",
          "name": "time",
          "type": "uint256"
        },
        {
          "internalType": "address",
          "name": "observer",
          "type": "address"
        }
      ],
      "name": "changeLastVote",
      "outputs": [],
      "stateMutability": "nonpayable",
      "type": "function"
    },
    {
      "inputs": [
        {
          "internalType": "uint256",
          "name": "amount",
          "type": "uint256"
        },
        {
          "internalType": "address",
          "name": "observer",
          "type": "address"
        }
      ],
      "name": "increaseObserverAmount",
      "outputs": [],
      "stateMutability": "nonpayable",
      "type": "function"
    },
    {
      "inputs": [],
      "name": "settle",
      "outputs": [],
      "stateMutability": "nonpayable",
      "type": "function"
    },
    {
      "inputs": [
        {
          "internalType": "address",
          "name": "observer",
          "type": "address"
        }
      ],
      "name": "fireObserver",
      "outputs": [],
      "stateMutability": "nonpayable",
      "type": "function"
    }
  ],
  "bytecode": "0x60a060405234801561001057600080fd5b503373ffffffffffffffffffffffffffffffffffffffff1660808173ffffffffffffffffffffffffffffffffffffffff1660601b8152505060805160601c61167661007b600039600081816105d101528181610bec01528181610db90152610ea501526116766000f3fe6080604052600436106100a75760003560e01c80636068629a116100645780636068629a146101bd57806363a9c3d7146101e857806368ffc8ea14610211578063873a14c41461023a5780638da5cb5b14610265578063b7bc0f7314610290576100a7565b806311da60b4146100ac5780631975c9b9146100c35780633d8ac67a146101055780633fba25581461014257806343d2da4e1461016b5780634b38994214610194575b600080fd5b3480156100b857600080fd5b506100c161029a565b005b3480156100cf57600080fd5b506100ea60048036038101906100e59190611242565b610520565b6040516100fc969594939291906113cb565b60405180910390f35b34801561011157600080fd5b5061012c6004803603810190610127919061126f565b610590565b604051610139919061138e565b60405180910390f35b34801561014e57600080fd5b5061016960048036038101906101649190611242565b6105cf565b005b34801561017757600080fd5b50610192600480360381019061018d919061129c565b610812565b005b3480156101a057600080fd5b506101bb60048036038101906101b6919061129c565b61097c565b005b3480156101c957600080fd5b506101d2610b5c565b6040516101df91906113a9565b60405180910390f35b3480156101f457600080fd5b5061020f600480360381019061020a9190611242565b610bea565b005b34801561021d57600080fd5b5061023860048036038101906102339190611242565b610db7565b005b34801561024657600080fd5b5061024f610e7f565b60405161025c919061138e565b60405180910390f35b34801561027157600080fd5b5061027a610ea3565b604051610287919061138e565b60405180910390f35b610298610ec7565b005b33600160008273ffffffffffffffffffffffffffffffffffffffff1673ffffffffffffffffffffffffffffffffffffffff16815260200190815260200160002060020160029054906101000a900460ff16610321576040517fcfa249af00000000000000000000000000000000000000000000000000000000815260040160405180910390fd5b426276a700600160003373ffffffffffffffffffffffffffffffffffffffff1673ffffffffffffffffffffffffffffffffffffffff168152602001908152602001600020600101546103739190611465565b106103aa576040517f44134c3b00000000000000000000000000000000000000000000000000000000815260040160405180910390fd5b600160003373ffffffffffffffffffffffffffffffffffffffff1673ffffffffffffffffffffffffffffffffffffffff16815260200190815260200160002060020160019054906101000a900460ff1615610431576040517f560ff90000000000000000000000000000000000000000000000000000000000815260040160405180910390fd5b3373ffffffffffffffffffffffffffffffffffffffff166108fc600160003373ffffffffffffffffffffffffffffffffffffffff1673ffffffffffffffffffffffffffffffffffffffff168152602001908152602001600020600001549081150290604051600060405180830381858888f193505050501580156104b9573d6000803e3d6000fd5b5060018060003373ffffffffffffffffffffffffffffffffffffffff1673ffffffffffffffffffffffffffffffffffffffff16815260200190815260200160002060020160016101000a81548160ff02191690831515021790555061051d33611033565b50565b60016020528060005260406000206000915090508060000154908060010154908060020160009054906101000a900460ff16908060020160019054906101000a900460ff16908060020160029054906101000a900460ff16908060020160039054906101000a900460ff16905086565b600281815481106105a057600080fd5b906000526020600020016000915054906101000a900473ffffffffffffffffffffffffffffffffffffffff1681565b7f000000000000000000000000000000000000000000000000000000000000000073ffffffffffffffffffffffffffffffffffffffff163373ffffffffffffffffffffffffffffffffffffffff1614610654576040517f4ca8886700000000000000000000000000000000000000000000000000000000815260040160405180910390fd5b80600160008273ffffffffffffffffffffffffffffffffffffffff1673ffffffffffffffffffffffffffffffffffffffff16815260200190815260200160002060020160029054906101000a900460ff166106db576040517fcfa249af00000000000000000000000000000000000000000000000000000000815260040160405180910390fd5b81600160008273ffffffffffffffffffffffffffffffffffffffff1673ffffffffffffffffffffffffffffffffffffffff16815260200190815260200160002060020160009054906101000a900460ff16610762576040517fa95362b500000000000000000000000000000000000000000000000000000000815260040160405180910390fd5b60018060008573ffffffffffffffffffffffffffffffffffffffff1673ffffffffffffffffffffffffffffffffffffffff16815260200190815260200160002060020160036101000a81548160ff0219169083151502179055506000600160008573ffffffffffffffffffffffffffffffffffffffff1673ffffffffffffffffffffffffffffffffffffffff1681526020019081526020016000206000018190555061080d83611033565b505050565b60008054906101000a900473ffffffffffffffffffffffffffffffffffffffff1673ffffffffffffffffffffffffffffffffffffffff163373ffffffffffffffffffffffffffffffffffffffff1614610897576040517f4ca8886700000000000000000000000000000000000000000000000000000000815260040160405180910390fd5b80600160008273ffffffffffffffffffffffffffffffffffffffff1673ffffffffffffffffffffffffffffffffffffffff16815260200190815260200160002060020160029054906101000a900460ff1661091e576040517fcfa249af00000000000000000000000000000000000000000000000000000000815260040160405180910390fd5b82600160008473ffffffffffffffffffffffffffffffffffffffff1673ffffffffffffffffffffffffffffffffffffffff16815260200190815260200160002060000160008282546109709190611465565b92505081905550505050565b60008054906101000a900473ffffffffffffffffffffffffffffffffffffffff1673ffffffffffffffffffffffffffffffffffffffff163373ffffffffffffffffffffffffffffffffffffffff1614610a01576040517f4ca8886700000000000000000000000000000000000000000000000000000000815260040160405180910390fd5b80600160008273ffffffffffffffffffffffffffffffffffffffff1673ffffffffffffffffffffffffffffffffffffffff16815260200190815260200160002060020160029054906101000a900460ff16610a88576040517fcfa249af00000000000000000000000000000000000000000000000000000000815260040160405180910390fd5b81600160008273ffffffffffffffffffffffffffffffffffffffff1673ffffffffffffffffffffffffffffffffffffffff16815260200190815260200160002060020160009054906101000a900460ff16610b0f576040517fa95362b500000000000000000000000000000000000000000000000000000000815260040160405180910390fd5b83600160008573ffffffffffffffffffffffffffffffffffffffff1673ffffffffffffffffffffffffffffffffffffffff1681526020019081526020016000206001018190555050505050565b60606002805480602002602001604051908101604052809291908181526020018280548015610be057602002820191906000526020600020905b8160009054906101000a900473ffffffffffffffffffffffffffffffffffffffff1673ffffffffffffffffffffffffffffffffffffffff1681526020019060010190808311610b96575b5050505050905090565b7f000000000000000000000000000000000000000000000000000000000000000073ffffffffffffffffffffffffffffffffffffffff163373ffffffffffffffffffffffffffffffffffffffff1614610c6f576040517f4ca8886700000000000000000000000000000000000000000000000000000000815260040160405180910390fd5b80600160008273ffffffffffffffffffffffffffffffffffffffff1673ffffffffffffffffffffffffffffffffffffffff16815260200190815260200160002060020160029054906101000a900460ff16610cf6576040517fcfa249af00000000000000000000000000000000000000000000000000000000815260040160405180910390fd5b60018060008473ffffffffffffffffffffffffffffffffffffffff1673ffffffffffffffffffffffffffffffffffffffff16815260200190815260200160002060020160006101000a81548160ff0219169083151502179055506002829080600181540180825580915050600190039060005260206000200160009091909190916101000a81548173ffffffffffffffffffffffffffffffffffffffff021916908373ffffffffffffffffffffffffffffffffffffffff1602179055505050565b7f000000000000000000000000000000000000000000000000000000000000000073ffffffffffffffffffffffffffffffffffffffff163373ffffffffffffffffffffffffffffffffffffffff1614610e3c576040517f4ca8886700000000000000000000000000000000000000000000000000000000815260040160405180910390fd5b806000806101000a81548173ffffffffffffffffffffffffffffffffffffffff021916908373ffffffffffffffffffffffffffffffffffffffff16021790555050565b60008054906101000a900473ffffffffffffffffffffffffffffffffffffffff1681565b7f000000000000000000000000000000000000000000000000000000000000000081565b670de0b6b3a7640000341015610f09576040517f1101129400000000000000000000000000000000000000000000000000000000815260040160405180910390fd5b600160003373ffffffffffffffffffffffffffffffffffffffff1673ffffffffffffffffffffffffffffffffffffffff16815260200190815260200160002060020160029054906101000a900460ff1615610f90576040517f4740f26d00000000000000000000000000000000000000000000000000000000815260040160405180910390fd5b34600160003373ffffffffffffffffffffffffffffffffffffffff1673ffffffffffffffffffffffffffffffffffffffff1681526020019081526020016000206000018190555060018060003373ffffffffffffffffffffffffffffffffffffffff1673ffffffffffffffffffffffffffffffffffffffff16815260200190815260200160002060020160026101000a81548160ff021916908315150217905550565b600061103e8261104d565b9050611049816110e2565b5050565b600080600090505b8273ffffffffffffffffffffffffffffffffffffffff16600282815481106110805761107f6115de565b5b9060005260206000200160009054906101000a900473ffffffffffffffffffffffffffffffffffffffff1673ffffffffffffffffffffffffffffffffffffffff16146110d95780806110d190611537565b915050611055565b80915050919050565b60028054905081106110f357611215565b60008190505b600160028054905061110b91906114bb565b8110156111cc5760026001826111219190611465565b81548110611132576111316115de565b5b9060005260206000200160009054906101000a900473ffffffffffffffffffffffffffffffffffffffff1660028281548110611171576111706115de565b5b9060005260206000200160006101000a81548173ffffffffffffffffffffffffffffffffffffffff021916908373ffffffffffffffffffffffffffffffffffffffff16021790555080806111c490611537565b9150506110f9565b5060028054806111df576111de6115af565b5b6001900381819060005260206000200160006101000a81549073ffffffffffffffffffffffffffffffffffffffff021916905590555b50565b60008135905061122781611612565b92915050565b60008135905061123c81611629565b92915050565b6000602082840312156112585761125761160d565b5b600061126684828501611218565b91505092915050565b6000602082840312156112855761128461160d565b5b60006112938482850161122d565b91505092915050565b600080604083850312156112b3576112b261160d565b5b60006112c18582860161122d565b92505060206112d285828601611218565b9150509250929050565b60006112e883836112f4565b60208301905092915050565b6112fd816114ef565b82525050565b61130c816114ef565b82525050565b600061131d8261143c565b6113278185611454565b93506113328361142c565b8060005b8381101561136357815161134a88826112dc565b975061135583611447565b925050600181019050611336565b5085935050505092915050565b61137981611501565b82525050565b6113888161152d565b82525050565b60006020820190506113a36000830184611303565b92915050565b600060208201905081810360008301526113c38184611312565b905092915050565b600060c0820190506113e0600083018961137f565b6113ed602083018861137f565b6113fa6040830187611370565b6114076060830186611370565b6114146080830185611370565b61142160a0830184611370565b979650505050505050565b6000819050602082019050919050565b600081519050919050565b6000602082019050919050565b600082825260208201905092915050565b60006114708261152d565b915061147b8361152d565b9250827fffffffffffffffffffffffffffffffffffffffffffffffffffffffffffffffff038211156114b0576114af611580565b5b828201905092915050565b60006114c68261152d565b91506114d18361152d565b9250828210156114e4576114e3611580565b5b828203905092915050565b60006114fa8261150d565b9050919050565b60008115159050919050565b600073ffffffffffffffffffffffffffffffffffffffff82169050919050565b6000819050919050565b60006115428261152d565b91507fffffffffffffffffffffffffffffffffffffffffffffffffffffffffffffffff82141561157557611574611580565b5b600182019050919050565b7f4e487b7100000000000000000000000000000000000000000000000000000000600052601160045260246000fd5b7f4e487b7100000000000000000000000000000000000000000000000000000000600052603160045260246000fd5b7f4e487b7100000000000000000000000000000000000000000000000000000000600052603260045260246000fd5b600080fd5b61161b816114ef565b811461162657600080fd5b50565b6116328161152d565b811461163d57600080fd5b5056fea264697066735822122098a12e52aad8c8be8bd2aa00c77705b212a7e3e235040807425dd725b79c3c5564736f6c63430008060033",
  "immutableReferences": {
    "1060": [
      {
        "length": 32,
        "start": 1489
      },
      {
        "length": 32,
        "start": 3052
      },
      {
        "length": 32,
        "start": 3513
      },
      {
        "length": 32,
        "start": 3749
      }
    ]
  },
  "source": "// SPDX-License-Identifier: GPL-3.0\npragma solidity ^0.8.4;\n\nerror InsufficientValue();\nerror AlreadySignedUp();\nerror AccessDenied();\nerror DoesntExists();\nerror SettleTimeNotArrived();\nerror AlreadySettled();\nerror NotVerified();\n\ncontract Observers {\n    struct Observer {\n        uint amount;\n        uint lastVote;\n        bool hasVerified;\n        bool hasSettled;\n        bool exists;\n        bool isFired;\n    }\n    \n    address immutable public owner;\n    address public documentContractAddr;\n    mapping (address => Observer) public observersList;\n    address[] public observersAddrList;\n    \n    modifier requireOwner() {\n        if(msg.sender != owner) revert AccessDenied();\n        _;\n    }\n    \n    modifier requireDocContract() {\n        if(msg.sender != documentContractAddr) revert AccessDenied();\n        _;\n    }\n    \n    modifier requireSignUp(address observer) {\n        if(!observersList[observer].exists) revert DoesntExists();\n        _;\n    }\n\n    modifier requireVerification(address observer) {\n        if(!observersList[observer].hasVerified) revert NotVerified();\n        _;\n    }\n    \n    constructor() {\n        owner = msg.sender;\n    }\n    \n    function getObserversAddrList() external view returns (address[] memory) {\n        return observersAddrList;\n    }\n    \n    function setDocumentContractAddress(address newDocContractAddr) public requireOwner {\n        documentContractAddr = newDocContractAddr;\n    }\n    \n    function signup() external payable {\n        if(msg.value < 1 ether) revert InsufficientValue();\n        if(observersList[msg.sender].exists) revert AlreadySignedUp();\n        \n        observersList[msg.sender].amount = msg.value;\n        observersList[msg.sender].exists = true;\n    }\n    \n    function verify(address observer) external requireOwner requireSignUp(observer) {\n        observersList[observer].hasVerified = true;\n        observersAddrList.push(observer);\n    }\n    \n    function changeLastVote(uint time, address observer) external requireDocContract requireSignUp(observer) requireVerification(observer) {\n        observersList[observer].lastVote = time;\n    }\n    \n    function increaseObserverAmount(uint amount, address observer) external requireDocContract requireSignUp(observer) {\n        observersList[observer].amount += amount;\n    }\n    \n    function settle() external requireSignUp(msg.sender) {\n        if(observersList[msg.sender].lastVote + 90 days >= block.timestamp) revert SettleTimeNotArrived();\n        if(observersList[msg.sender].hasSettled) revert AlreadySettled();\n\n        payable(msg.sender).transfer(observersList[msg.sender].amount);\n        observersList[msg.sender].hasSettled = true;\n\n        removeObserverAddress(msg.sender);\n    }\n    \n    function fireObserver(address observer) external requireOwner requireSignUp(observer) requireVerification(observer) {\n        observersList[observer].isFired = true;\n        observersList[observer].amount = 0;\n\n        removeObserverAddress(observer);\n    }\n\n    function findObserverAddressIndex(address value) private view returns(uint) {\n        uint i = 0;\n        while (observersAddrList[i] != value) {\n            i++;\n        }\n        return i;\n    }\n\n    function removeObserverAddress(address value) private {\n        uint i = findObserverAddressIndex(value);\n        removeObserverAddressByIndex(i);\n    }\n\n    function removeObserverAddressByIndex(uint index) private {\n        if (index >= observersAddrList.length) return;\n\n        for (uint i = index; i<observersAddrList.length-1; i++){\n            observersAddrList[i] = observersAddrList[i+1];\n        }\n        observersAddrList.pop();\n    }\n}",
  "sourcePath": "/Users/pmzi/Work/Programming/legalcontracts/Contracts/contracts/Observers.sol",
  "compiler": {
    "name": "solc",
    "version": "0.8.6+commit.11564f7e.Emscripten.clang"
  },
  "schemaVersion": "3.4.9",
  "updatedAt": "2022-08-15T19:29:01.430Z",
  "devdoc": {
    "kind": "dev",
    "methods": {},
    "version": 1
  },
  "userdoc": {
    "kind": "user",
    "methods": {},
    "version": 1
  }
}